:100000000C94973D0C94C83D0C94C83D0C94C83D8D
:100010000C94C83D0C94C83D0C94C83D0C94C83D4C
:100020000C94C83D0C94C83D0C94C83D0C94C83D3C
:100030000C94C83D0C94C83D0C94C83D0C94C83D2C
:100040000C94C83D0C94C7420C94C83D0C94C83D18
:100050000C94C83D0C94C83D0C94C83D0C94F542DA
:100060000C94C83D0C9469430C943F430C94C83DD8
:100070000C94C83D0C94C83D0C94C83D0C94C83DEC
:100080000C9499420C94C83D0C94C83D0C94C83D06
:100090000C94C83D0C94C83D0C94C83D0C94C83DCC
:1000A0000C94C83D0C94C83D0C946B420C94C83D14
:1000B0000C94C83D0C94C83D0C94C83D0C943D4232
:1000C0000C94C83D0C94C83D0C94C83D0C94C83D9C
:1000D0000C94C83D0C94C83D0C94C83D0C94C83D8C
:1000E0000C94C83D843E873E763E7A3E803EBE3EBE
:1000F0008B3E8F3E953E993E9D3EA33EA73EAB3E36
:10010000BE3EB13EB53EB93E0C94763E0C948A4557
:100110000C94993E0C9440410C94B53E0C94BE3E18
:100120000C94B13E0C949D3E0C948B3E0C94A73ED7
:100130000C9462410C94AB3E0C9499410C94314167
:100140000C94E0410C94803E0C94953E0C945441E8
:100150000C94B93E0C947A3E0C94A33E0C94873ECA
:100160000C94843E0C948F3E0C94024103000000DA
:10017000000000000000000000000000000000007F
:10018000000002020101010101010101010101015F
:100190000102020202020202020202020202010142
:1001A0000101010101010101010103030303030333
:1001B000010101030301010101010101010101012B
:1001C000010101020202020201010101010101011A
:1001D0000101010202020000000000000100000015
:1001E00000000200000202020202020202020202F7
:1001F00002000000000000030303000000000000F4
:1002000000000000000000000000000000000000EE
:1002100002020101010101010101010101010102CB
:1002200002020202020202020202020202010101B1
:10023000010101010101010103030303030303039E
:10024000030101010101010101010101010002029B
:100250000202020202010101010101010101010288
:100260000202000000000000000100000000000287
:100270000002020202020202020202020202020062
:100280000000000003030300000000000000000065
:100290000000000000000000000000000002020159
:1002A0000201010101010101010101010202020239
:1002B0000202020202020202020202020101010122
:1002C000010101010101010101010103010101011C
:1002D0000101010101010101010101020202020209
:1002E00002020101010101010101010102020000FC
:1002F00000000000000000000000000002000202F8
:1003000002020202020202020202020203030300CC
:1003100000030303000000000000000000000000D4
:1003200000000000000000000000000201020201C5
:1003300001010101010101010101010202020202A8
:100340000202020202020202020201010101010193
:10035000010101010101010101010101010101018D
:100360000101010101010202020202020202010175
:100370000101010101010101020200000000000071
:100380000000000000000000000002000202020263
:100390000202020202020202020203030303030337
:1003A000030000000000000000000000000000004A
:1003B0000000000000000000000202020101010133
:1003C0000101010101010101020202020202020215
:1003D0000202020202020202010101010101010105
:1003E00001010101010101010101010101010101FD
:1003F00001010102020202020202010101010101E6
:1004000001010101010200000000000000000000E5
:1004100000000000000000020000020202020202CE
:1004200002020202020202020205030303030000A9
:1004300000000000000000000000000000000000BC
:1004400000000000000000020201010101010101A1
:100450000101010101020202020202020202020281
:100460000202020202020101010101010101010176
:10047000010101010101010101010101010101016C
:100480000202020202020101010101010101010156
:100490000202000000000000000000000000000058
:1004A0000000000002020002020202020202020236
:1004B0000202020202020202030303000000000023
:1004C000000000000000000000000000000000002C
:1004D0000000000000020101010101010101010110
:1004E00001010101020202020202020202020202F0
:1004F00001010101010101010101010101010101EC
:1005000001010101010101010101010101010201DA
:1005100001010101010101010101020101010000CC
:1005200000000000000000000000000000000000CB
:1005300000000200030202020202020202020202A0
:100540000202020202030303000000000000000098
:10055000000000000000000000000000000000009B
:10056000000000000201010101010101010101017E
:100570000101020202020202020202020201010160
:10058000010101010101010101010101010101015B
:10059000010101010101010101010101010101014B
:1005A0000101010101010101010100000000000041
:1005B000000000000000000000000000000000003B
:1005C000020202020202020202020202020202020B
:1005D000020203030300000000000000000000000E
:1005E000000000000000000000000000000000000B
:1005F00000000201010101010101010101010101EC
:1006000001010101020202020202010101010101D4
:1006100001010101010101010101010201010101C9
:1006200001010101010101020101010101010101B9
:1006300001010101010202000000000000000000B1
:1006400000000000000000000000000000000200A8
:10065000000202020203020202020202020202037A
:100660000303000000000000000000000000000084
:10067000000000000000000000000000000000007A
:10068000010101010101010101010101010101015A
:100690000102020201020201010101010101010145
:1006A000010102020202020202020202020202022C
:1006B0000202020202010101010101010101010125
:1006C0000101000000000000000000000000000028
:1006D0000000000000000000000000000003030212
:1006E00002020302030202020202020303030300E6
:1006F00000000000000000000000000000000000FA
:1007000000000000000000000000000000000202E5
:1007100002020101010101010101010101010101C7
:1007200002010101000102020202020202020202AF
:100730000202020202020202020202020202020299
:100740000202010101010101010101010101010098
:100750000000000000000000000000000000000099
:10076000000000000000000000000003030202027D
:10077000020202020202020203030303000000005D
:100780000000000000000000000000000000000069
:100790000000000000000000000000000002020253
:1007A0000101010101010101010101010101020237
:1007B0000202020202020202020202020303020217
:1007C0000202020202020202020202020202020209
:1007D000020101010101010101010202000000000A
:1007E0000000000000000000000000000000000009
:1007F00001000000000000000003020002020202EB
:1008000002020202020303030300000000000000D2
:1008100000000000000000000000000000000000D8
:1008200000000000000000000000000202010101C1
:1008300001010101010101010101010202020202A3
:100840000202020202020203030303030303020281
:100850000202020202020202020202020202020179
:10086000010101010101010200000000000000007F
:100870000000000000000000000000000001010076
:100880000000000000000303030202020202020251
:100890000202030303030000000000000000000048
:1008A0000000000000000000000000000000000048
:1008B0000000000000000000000001010101010132
:1008C0000101010101010101020202020202020210
:1008D00002020203030303030303030202020202F0
:1008E00002020202020202020202020201010101EC
:1008F00001010202000000000000000000000000F2
:1009000000000000000000000000000101000000E5
:1009100000000000000203020202020202020203BF
:1009200003030300000000000000000000000000BE
:1009300000000000000000000000000000000000B7
:10094000000000000000000202010201010101019B
:10095000010101010202020202020202020202037A
:10096000030303030303030303030302020202025C
:10097000020202020202020202010101010101025D
:100980000000000000000000000000000000000067
:100990000000000000000000000101000000000055
:1009A0000300000303030302020202020303030322
:1009B0000000000000000000000000000000000037
:1009C0000000000000000000000000000000000027
:1009D000000000000000020202010101010101010A
:1009E00002020202020202020202020303030303E2
:1009F00003030303030303030202020202020202CF
:100A000002020202020201010102020202000000CF
:100A100000000000000000000000000000000000D6
:100A200000000000000000000200000000000003C1
:100A30000203030302020202020303030300000095
:100A400000000000000000000000000000000000A6
:100A50000000000000000000000000000000000096
:100A60000000000002020101010101010101020276
:100A7000020202020202020203030303030303034E
:100A80000303030303020202020202020202020241
:100A90000202010101010202020000000000000048
:100AA0000000000000000000000000000000000046
:100AB000000000000000020200000000000003032C
:100AC000030002020202030303030000000000000F
:100AD0000000000000000000000000000000000016
:100AE0000000000000000000000000000000000006
:100AF00000000202020101010101010102020202E1
:100B000002020202020202030303030303030302BD
:100B100002020202020202020202020202020201B6
:100B200001020102020000000000000000000000BD
:100B300000000000000000000000000000000000B5
:100B40000000000002050300000000030303000092
:100B50000200020303030300000000000000000085
:100B60000000000000000000000000000000000085
:100B70000000000000000000000000000000000075
:100B8000020201010201010101020202020202024B
:100B90000202020202020303030202020202020232
:100BA0000202020202020202020202010102020227
:100BB0000200000000000000000000000000000033
:100BC0000000000000000000000000000000000025
:100BD0000000000203000000000000000000000010
:100BE00003030303000000000000000000000000F9
:100BF00000000000000000000000000000000000F5
:100C000000000000000000000000000000000202E0
:100C100002020101010102020202020202020202B8
:100C200002020202020202020202020202020202A4
:100C3000020202020202020201010202020000009C
:100C400000000000000000000000000000000000A4
:100C50000000000000000000000000000000000094
:100C6000000000000000000000000000000003037E
:100C70000300000000000000000000000000000071
:100C80000000000000000000000000000000000064
:100C9000000000000000000000000000000202014F
:100CA0000101010102020202020202020202020228
:100CB0000202020202020202020202020202020214
:100CC0000202020202020202020000000000000012
:100CD0000000000000000000000000000000000014
:100CE0000000000000000000000000000000000004
:100CF00000020000000000000000000303030000E9
:100D000000000000000000000000000000000000E3
:100D100000000000000000000000000000000000D3
:100D200000000000000000000000000202020001BC
:100D30000202020202020202020202020202020293
:100D40000202020202020202020202020202020184
:100D5000010202020200000000000000000000008A
:100D60000000000000000000000000000000000083
:100D70000000000000000000000000000000000073
:100D8000000000000000000003030300000000005A
:100D90000000000000000000000000000000000053
:100DA0000000000000000000000000000000000142
:100DB0000000000000000000000202010102020227
:100DC0000102020202020202020202020202020204
:100DD00002010101010101010202020101010201FE
:100DE0000000000000000000000000000000000003
:100DF00000000000000000000000000000000000F3
:100E000000000000000000000000000000000000E2
:100E100000000000000303030000000000000000C9
:100E200000000000000000000000000000000000C2
:100E300000000000020202020102020101010100A1
:100E4000000000000000000000010101010101029A
:100E50000202020202020202020201010101010178
:100E60000101010101020101010101020000000074
:100E70000000000000000000000000000000000072
:100E80000000000000000000000000000000000062
:100E90000000000000000000000000000000000052
:100EA0000000030303000000000000000000000039
:100EB0000000000000000000000000000000000230
:100EC0000101010101010101010101010101000014
:100ED0000000000000000101010101010202020105
:100EE00001010202020101010101010101010101EF
:100EF00001010101010101010000000000000000EA
:100F000000000000000000000000000000000000E1
:100F100000000000000000000000000000000000D1
:100F200000000000000000000000000000000003BE
:100F300003030000000000000000000000000000AB
:100F4000000000000000000000000001010102029A
:100F50000202020101010101010101010000000082
:100F60000000000000010101010101020101010274
:100F70000201010101010101010101010101010160
:100F8000010101020000000000000000000000005C
:100F90000000000000000000000000000000000051
:100FA0000000000000000000000000000000000041
:100FB0000000000000000000000000000303030028
:100FC0000000000000000000000000000000000021
:100FD0000000000000000000010101020202010106
:100FE00001010101010101010101000000000000F7
:100FF00000000000010101010101010101010101E5
:1010000001010101010101010101010101010100D1
:1010100000000000000000000000000000000000D0
:1010200000000000000000000000000000000000C0
:1010300000000000000000000000000000000000B0
:101040000000000000000000000303030000000097
:101050000000000000000000000000000000000090
:101060000000000001010101010101010101010174
:101070000101010101010101000000000000000068
:101080000000000101010101010101010101000253
:101090000001010101010101010100000000000047
:1010A0000000000000000000000000000000000040
:1010B0000000000000000000000000000000000030
:1010C0000000000000000000000000000000000020
:1010D0000000000000000303030000000000000007
:1010E0000000000000000000000000000000000000
:1010F00000010101010101010201010101010101E0
:1011000002010101010200000000000000000000D7
:1011100000000000000000000000000000000000CF
:1011200000000000010000000000000000000000BE
:1011300000000000000000000000000000000000AF
:10114000000000000000000000000000000000009F
:10115000000000000000000000000000000000008F
:101160000000000303030000000000000000000076
:10117000000000000000000000000000000001016D
:10118000010101010101010101010101010101014F
:101190000101020200000000000000000000000049
:1011A000000000000000000000000000000000003F
:1011B000000000000000000000000000000000002F
:1011C000000000000000000000000000000000001F
:1011D000000000000000000000000000000000000F
:1011E00000000000000000000000000000000000FF
:1011F00003030300000000000000000000000000E6
:1012000000000000000000000101010101010101D6
:1012100001010101010201010101010101010201BC
:1012200001020000000000000000000000000000BB
:1012300000000000000000000000000000000000AE
:10124000000000000000000000000000000000009E
:10125000000000000000000000000000000000008E
:10126000000000000000000000000000000000007E
:101270000000000000000000000000000003030365
:10128000000000000000000000000000000000005E
:101290000000000000010101010101010101010143
:1012A000010101010101010101010101010102022C
:1012B000000000000000000000000000000000002E
:1012C000000000000000000000000000000000001E
:1012D000000000000000000000000000000000000E
:1012E00000000000000000000000000000000000FE
:1012F00000000000000000000000000000000000EE
:1013000000000000000000000000030303000000D4
:1013100000000000000000000000000000000000CD
:1013200001010101010101010101010101010101AD
:10133000010101010101010101010101010101009E
:10134000000000000000000000000000000000009D
:10135000000000000000000000000000000000008D
:10136000000000000000000000000000000000007D
:10137000000000000000000000000000000000006D
:10138000000000000000000000000000000000005D
:101390000000000000000003030300000000000044
:1013A0000000000000000000000000000101010238
:1013B000010101010101010101010101010101011D
:1013C000010101010101010101010101010100000F
:1013D000000000000000000000000000000000000D
:1013E00000000000000000000000000000000000FD
:1013F00000000000000000000000000000000000ED
:1014000000000000000000000000000000000000DC
:1014100000000000000000000000000000000000CC
:1014200000000000030303000000000000000000B3
:1014300000000000000000020102020101010101A0
:10144000010101010101010101010101010101028B
:10145000010202020101010101010101010101007A
:10146000000000000000000000000000000000007C
:10147000000000000000000000000000000000006C
:10148000000000000000000000000000000000005C
:10149000000000000000000000000000000000004C
:1014A000000000000000000000000000000000003C
:1014B0000003030300000000000000000000000023
:1014C000000000020202010101010101010101010C
:1014D00001010101010101020202020202020202F3
:1014E00002020202020201010101010101010000E8
:1014F00000000000000000000000000000000000EC
:1015000000000000000000000000000000000000DB
:1015100000000000000000000000000000000000CB
:1015200000000000000000000000000000000000BB
:1015300000000000000000000000000000000303A5
:101540000300000000000000000000000003030290
:10155000020101010101010101010101010101017A
:10156000020202020202020202020202020202025B
:10157000020202020101010101010101010000005A
:10158000000000000000000000000000000000005B
:10159000000000000000000000000000000000004B
:1015A000000000000000000000000000000000003B
:1015B000000000000000000000000000000000002B
:1015C0000000000000000000000000030303000012
:1015D0000000000000000000000202010101010102
:1015E00001010101010101010101020202020202E5
:1015F00002020202020202020202020202020202CB
:1016000002020201010101010101010100000000CB
:1016100000000000000000000000000000000000CA
:1016200000000000000000000000000000000000BA
:1016300000000000000000000000000000000000AA
:10164000000000000000000000000000000000009A
:101650000000000000000000030303000000000081
:10166000000000000002020201010101010101016C
:10167000010101010102020202020202020202024F
:10168000020202020202020202020202020202023A
:10169000020201010101010101010000000000003E
:1016A000000000000000000000000000000000003A
:1016B000000000000000000000000000000000002A
:1016C000000000000000000000000000000000001A
:1016D000000000000000000000000000000000000A
:1016E00000000000000303030000000000000000F1
:1016F00002020202010101010101010101010101D6
:1017000002020202020202020202020202020202B9
:1017100002020202020202020202020202020201AA
:1017200001010101010101010100000000000000B0
:1017300000000000000000000000000000000000A9
:101740000000000000000000000000000000000099
:101750000000000000000000000000000000000089
:101760000000000000000000000000000000000079
:10177000000003030300000000000000000202015B
:101780000101010101010101010101010202020245
:101790000202020202020202020202020202020229
:1017A000020202020202020202020202020202011A
:1017B0000101010101010100000000000000000022
:1017C0000000000000000000000000000000000019
:1017D0000000000000000000000000000000000009
:1017E00000000000000000000000000000000000F9
:1017F00000000000000000000000000000000003E6
:1018000003030000000000000201010101010101C9
:1018100001010101010101020202020202020202AF
:101820000202020202020202020202020202020298
:10183000020202020202020202020202020201018A
:101840000101020101010000000000000000000091
:101850000000000000000000000000000000000088
:101860000000000000000000000000000000000078
:101870000000000000000000000000000000000068
:10188000000000000000000000000000030303004F
:101890000000000202010101010101010101010139
:1018A000010101020202020202020202020202021B
:1018B0000202020202020202020202020202020208
:1018C00002020202020202020202020202020202F8
:1018D0000202010100000000000000000000000002
:1018E00000000000000000000000000000000000F8
:1018F00000000000000000000000000000000000E8
:1019000000000000000000000000000000000000D7
:1019100000000000000000000003030300000001BD
:1019200001010101010101010101010101010101A7
:101930000202020202020202020202020202020287
:101940000202020202020202020202020202020277
:101950000202020202020202020202020202020168
:101960000101000000000000000000000000000075
:101970000000000000000000000000000000000067
:101980000000000000000000000000000000000057
:101990000000000000000000000000000000000047
:1019A0000000000000000303030002020101010126
:1019B0000101010101010101010101010202020213
:1019C00002020202020202020202020202020202F7
:1019D00002020202020202020202020202020202E7
:1019E00002020202020202020202020202010101DA
:1019F00000000000000000000000000000000000E7
:101A000000000000000000000000000000000000D6
:101A100000000000000000000000000000000000C6
:101A200000000000000000000000000000000000B6
:101A30000000000303030101010101010101010193
:101A4000010101010101010102020202020202027E
:101A50000202020202020202020202020202020266
:101A60000202020202020202020202020202020256
:101A7000020202020202020202020201020201004A
:101A80000000000000000000000000000000000056
:101A90000000000000000000000000000000000046
:101AA0000000000000000000000000000000000036
:101AB0000000000000000000000000000000000026
:101AC0000303030101010101010101010101010100
:101AD00001010102020202020202020202020202E9
:101AE00002020202020202020202020202020202D6
:101AF00002020202020202020202020202020202C6
:101B000002020202020202020202020100000000BE
:101B100000000000000000000000000000000000C5
:101B200000000000000000000000000000000000B5
:101B300000000000000000000000000000000000A5
:101B4000000000000000000000000000000303038C
:101B50000101010101010101010101010101010175
:101B60000102020202020202020202020202020256
:101B70000202020202020202020202020202020245
:101B80000202020202020202020202020202020235
:101B90000202020202020202020200000000000031
:101BA0000000000000000000000000000000000035
:101BB0000000000000000000000000000000000025
:101BC0000000000000000000000000000000000015
:101BD00000000000000000000000030303010101F9
:101BE00001010101010101010101010101020202E2
:101BF00002020202020202020202020202020202C5
:101C000002020202020202020202020202020202B4
:101C100002020202020202020202020202020202A4
:101C200002020202020101020000000000000000A6
:101C300000000000000000000000000000000000A4
:101C40000000000000000000000000000000000094
:101C50000000000000000000000000000000000084
:101C60000000000000000003030301010101010165
:101C7000010101010101010101020202020202024D
:101C80000202020202020202020202020202020234
:101C90000202020202020202020202020202020224
:101CA0000202020202020202020202020202020214
:101CB000020201020201000000000000000000001A
:101CC0000000000000000000000000000000000014
:101CD0000000000000000000000000000000000004
:101CE00000000000000000000000000000000000F4
:101CF00000000000030303010101010101010101D2
:101D000001010101010202020202020202020202B8
:101D100002020202020202020202020202020202A3
:101D20000203030202020202020202020202020291
:101D30000202020202020202020202020202020283
:101D4000020201000000000000000000000000008E
:101D50000000000000000000000000000000000083
:101D60000000000000000000000000000000000073
:101D70000000000000000000000000000000000063
:101D8000000303030101010101010101010101013E
:101D90000101020202020202020202020202020225
:101DA0000202020202020202020202020203030310
:101DB0000302020202020202020202020202020202
:101DC00002020202020202020202020202020201F4
:101DD0000100000000000000000000000000000002
:101DE00000000000000000000000000000000000F3
:101DF00000000000000000000000000000000000E3
:101E000000000000000000000000000000000303CC
:101E100003010101010101010101010101020202AD
:101E20000202020202020202020202020202020292
:101E30000202020202030303030202030303030379
:101E40000303030303030303020202030302020268
:101E50000202020202020202020202020101010067
:101E60000000000000000000000000000000000072
:101E70000000000000000000000000000000000062
:101E80000000000000000000000000000000000052
:101E90000000000000000000000000030303010137
:101EA000010101010101010101020202020202021B
:101EB0000202020202020202020202020202020202
:101EC00002020303030303030303030303030303E4
:101ED00003030303030303030303030202020202D7
:101EE00002020202020202020201010202000000DA
:101EF00000000000000000000000000000000000E2
:101F000000000000000000000000000000000000D1
:101F100000000000000000000000000000000000C1
:101F200000000000000000000303030101010101A3
:101F30000101010101010202020202020202020287
:101F40000202020202020202020202020202020370
:101F50000303020303030303030303030303030352
:101F60000303030303030303020202020202020249
:101F7000020202020202020102010000000000004F
:101F80000000000000000000000000000000000051
:101F90000000000000000000000000000000000041
:101FA0000000000000000000000000000000000031
:101FB000000000000003030301010101010102020E
:101FC00002020202020202020202020202020202F1
:101FD00002020202020202020203030303030303DA
:101FE00003030303030303030303030303030303C1
:101FF00003030303030303030202020202020202B9
:1020000002020202000202000000000000000000C4
:1020100000000000000000000000000000000000C0
:1020200000000000000000000000000000000000B0
:1020300000000000000000000000000000000000A0
:102040000000030303010101010101020202020277
:102050000202020202020202020202020202020260
:102060000202020202020303030303030303030346
:102070000303030303030303030303030303030330
:10208000030303030302020202020202020202022B
:102090000201020202000000000000000000000037
:1020A0000000000000000000000000000000000030
:1020B0000000000000000000000000000000000020
:1020C000000000000000000000000000000000030D
:1020D00003030101010101010202020202020202E4
:1020E00002020202020202020202020202020202D0
:1020F00002020202030303030303030303030303B4
:10210000030303030303030303030303030303039F
:10211000030302020202020202020202020202029D
:1021200002020000000000000000000000000000AB
:10213000000000000000000000000000000000009F
:10214000000000000000000000000000000000008F
:102150000000000000000000000000000303030175
:102160000101010101020202020202020202020254
:10217000020202020202020202020202020202023F
:102180000202030303030303030303030303030321
:102190000303030303030303030303030302020212
:1021A000020202020202020202020202020202020F
:1021B0000000000000000002000002020000000019
:1021C000000000000000000000000000000000000F
:1021D00000000000000000000000000000000000FF
:1021E00000000000000000000003030301010101E2
:1021F00001010202020202020202020202020202C1
:1022000002020202020202020202020203020203AC
:10221000030303030303030303030303030303038E
:102220000303030303030303030302020202020284
:102230000202020202020202020202020200000084
:102240000000000002000003030000000000000086
:10225000000000000000000000000000000000007E
:10226000000000000000000000000000000000006E
:10227000000000000000030303010101010202024B
:10228000020202020202020202020202020202022E
:102290000202020202020202020203030303030318
:1022A00003030303030303030303030303030303FE
:1022B00003030303030303030002020202020202F8
:1022C00002020202020202000102000000000000FD
:1022D00002000303020200000000000000000000F2
:1022E00000000000000000000000000000000000EE
:1022F00000000000000000000000000000000000DE
:1023000000000003030301010102020202020202B3
:10231000020202020202020202020202020202029D
:102320000202020202020203030303030303030384
:10233000030303030303030303030303030303036D
:102340000303030303030202020202020202020267
:102350000202020201010200000000020202020267
:102360000202030300000000000000000000000063
:10237000000000000000000000000000000000005D
:10238000000000000000000000000000000000004D
:10239000030303010101020202020202020202021D
:1023A000020202020202020202020202020202020D
:1023B00002020202030303030303030303030303F1
:1023C00003030303030303030303030303030303DD
:1023D00003030302020202020202020202020202DA
:1023E00002010102020000000202020202020203D4
:1023F00003000000000000000000000000000000DA
:1024000000000000000000000000000000000000CC
:1024100000000000000000000000000000030303B3
:10242000020202020202020202020202020202028C
:10243000020202020202020202020202020202027C
:10244000030303030303030303030303030303035C
:10245000030303030303030303030303030303034C
:10246000020202020202020202020202020202014D
:102470000102000002000202020202020202000047
:10248000000000000000000000000000000000004C
:10249000000000000000000000000000000000003C
:1024A000000000000000000000000303030202021D
:1024B00002020202020202020202020202020202FC
:1024C00002020202020202020202020202030303E9
:1024D00003030303030303030303030303030303CC
:1024E00003030303030303030303030303020202BF
:1024F00002020202020202020202020201010200C0
:1025000000020202020202020202020000000000B7
:1025100000000000000000000000000000000000BB
:1025200000000000000000000000000000000000AB
:102530000000000000000003030302020202020286
:10254000020202020202020202020202020202026B
:102550000202020202020202020203030303030355
:10256000030303030303030303030303030303033B
:102570000303030303030303030202020202020232
:102580000202020202020202020102020000020230
:10259000020202020202020200000000000000002B
:1025A000000000000000000000000000000000002B
:1025B000000000000000000000000000000000001B
:1025C00000000000030303020202020202020202F0
:1025D00002020202020202020202020202020202DB
:1025E00002020202020202030303030303030303C2
:1025F00003030303030303030303030303030303AB
:1026000003030303030302020202020202020202A4
:10261000020202020202010202000002020202029F
:1026200002020202020000000000000000000000A0
:10263000000000000000000000000000000000009A
:10264000000000000000000000000000000000008A
:102650000003030302020202020202020202020259
:10266000020202020202020202020202020202024A
:10267000020202020203030303030303030303032F
:10268000030303030303030303030303030303031A
:102690000303030202020202020202020202020217
:1026A000020202010202000002020202020202020F
:1026B0000202000000000000000000000000000016
:1026C000000000000000000000000000000000000A
:1026D00000000000000000000000000000000303F4
:1026E00003020202020202020202020202020202C9
:1026F00002020202020202020202020202020202BA
:10270000020303030303030303030303030303039A
:102710000303030303030303030303030303030389
:102720000202020202020202020202020202020289
:10273000020202000002020202020202020202007F
:102740000000000000000000000000000000000089
:102750000000000000000000000000000000000079
:10276000000000000000000000000003030302025C
:102770000202020202020202020202020202020239
:102780000202020202020202020202020202030327
:102790000303030303030303030303030303030309
:1027A00003030303030303030303030303020202FC
:1027B00002020202020202020202020202020202F9
:1027C00002000302020202020302020200000000F1
:1027D00000000000000000000000000000000000F9
:1027E00000000000000000000000000000000000E9
:1027F00000000000000000000303030202020202C6
:1028000002020202020202020202020202020202A8
:102810000202020202020202020202030303030393
:102820000303030303030303030303030303030378
:10283000030303030303030303030202020202026E
:10284000020202020202020202020202020200006C
:102850000202020203030303030000000000000061
:102860000000000000000000000000000000000068
:102870000000000000000000000000000000000058
:10288000000000000003030302020202020202022F
:102890000202020202020202020202020202020218
:1028A0000202020202020202030303030303030300
:1028B00003030303030303030303030303030303E8
:1028C00003030303030303020202020202020202E1
:1028D00002020202020202020202020000000202DE
:1028E00003030303030300000000000000000000D6
:1028F00000000000000000000000000000000000D8
:1029000000000000000000000000000000000000C7
:102910000000030303020202020202020202020298
:102920000202020202020202020202020202020287
:10293000020202020203030303030303030303036C
:102940000303030303030303030303030303030357
:102950000303030302020202020202020202020253
:102960000202020202020202000000030203030349
:10297000030303000000000000000000000000004E
:102980000000000000000000000000000000000047
:102990000000000000000000000000000000000334
:1029A0000303020202020202020202020202020205
:1029B00002020202020202020202020202020202F7
:1029C00002020303030303030303030303030303D9
:1029D00003030303030303030303030303030303C7
:1029E00003020202020202020202020202020202C6
:1029F00002020202020000000003030303030303B8
:102A000002000000000000000000000000000000C4
:102A100000000000000000000000000000000000B6
:102A2000000000000000000000000000030303029B
:102A30000202020202020202020202020202020276
:102A4000020202020202030303020203030303035E
:102A50000303030303030303030303030303030346
:102A60000303030303030303030303030303030336
:102A70000303030302020202020003020202020332
:102A80000303030303030303030303030303030316
:102A90000303030303030303030303030303030306
:102AA000030303000000000000000000000000001D
:102AB0000000000000000000000303030202020205
:102AC00002020202020202020202020202020203E5
:102AD00003030303030303030303030303030303C6
:102AE00003030303030303030303030303030303B6
:102AF00003030303030303030303030303030303A6
:102B00000303030303030303030303030303030395
:102B10000303030303030303030303030303030385
:102B20000303030303030303030303030303030375
:102B3000030300000000000000000000000000008F
:102B4000000000000000030303020202020202026E
:102B50000202020202020202020202020303030351
:102B60000303030303030303030303030303030335
:102B70000303030303030303030303030303030325
:102B80000303030303030303030303030303030315
:102B90000303030303030303030303030303030305
:102BA00003030303030303030303030303030303F5
:102BB00003030303030303030303030303030300E8
:102BC0000000000000000000000000000000000005
:102BD00000000003030302020202020202020202D8
:102BE00002020202020202020303030303030303BD
:102BF00003030003030300030303030303030303AB
:102C0000030303030303030003030300030303039A
:102C10000303030303030303030303030303030384
:102C2000030003030303030303030303030303007A
:102C30000303000303030303030303030303030367
:102C40000303000303030303030303030000000063
:102C50000000000000000000000000000000000074
:102C60000303030202020202020202020202020241
:102C7000020202020203030303030303030303002C
:102C8000030303000303030303030300030303031A
:102C9000030303030003030300030303030003030D
:102CA00003000303030303030303000303030003FD
:102CB00000030300030303030303030300030303ED
:102CC00000030300030300030303000303030300E3
:102CD00003030303030303030300000000000000D9
:102CE00000000000000000000000000000030303DB
:102CF00002020202020202020202020202020202B4
:102D00000202020303030303030303030300030399
:102D10000000030300030003030003030303030392
:102D20000300000300000300030003030303000388
:102D30000003030300030003030003000303000375
:102D4000000303030303030303000303030003035C
:102D50000300030003030303000300030003030352
:102D60000303030303030000000000000000000051
:102D70000000000000000000000003030302020244
:102D80000202020202020202020202020202020223
:102D9000030303030303030303030300030000030C
:102DA00003000300030300030303030303030003FF
:102DB00003030003000303030303030303000303EC
:102DC00003000300030300030003030003000303E5
:102DD00003030303030300030303000000030303CF
:102DE00000030300030003000300030303030303C2
:102DF00003030300000000000000000000000000CA
:102E000000000000000000030303020202020202AD
:102E1000020202020202020202020202020303038F
:102E2000030303030303030300030003000300037E
:102E3000000303000303030303030300030303006E
:102E40000300030003000303030300030303000361
:102E5000030303000300030300030003030303034E
:102E6000030303000303000303000303030003033E
:102E7000030300030003000303030303030303032B
:102E80000000000000000000000000000000000042
:102E90000000000003030302020202020202020217
:102EA00002020202020202020202020303030303FD
:102EB00003030303030303030303030303030303E2
:102EC00003030303030303030303030303030303D2
:102ED00003030303030303030303030303030303C2
:102EE00000030303030303030303030303030303B5
:102EF00003030303030303030303030303030303A2
:102F0000030303030303030303030303000000009D
:102F100000000000000000000000000000000000B1
:102F20000003030302020202020202020202020280
:102F30000202020202020202020202020202020271
:102F40000202020202020203030303030303030358
:102F50000303030303030303030303030303030044
:102F60000002020202020202020203000000020248
:102F70000202000002020000000000000000000049
:102F80000303030303000000000000000000000032
:102F90000000000000000000000000000000000031
:102FA000000000000000000000000000000003031B
:102FB00003020202020202020202020202020202F0
:102FC00002020202020202020202020202020202E1
:102FD00002020202030303030303030303030303C5
:102FE00003030303030303030002000002020202BF
:102FF00002020202020202020202020202020202B1
:1030000002020201000000000000000000000303B3
:1030100003000000000000000000000000000000AD
:1030200000000000000000000000000000000000A0
:103030000000000000000000000000030303020283
:103040000202020202020202020202020202020260
:103050000202020202020202020202020202020250
:103060000202030303030303030303030303030332
:10307000030303030302020202020202020202022B
:103080000202020202020202020202010202020221
:103090000200000000000000000000000303030025
:1030A0000000000000000000000000000000000020
:1030B0000000000000000000000000000000000010
:1030C00000000000000000000303030202020202ED
:1030D00002020202020202020202020202020202D0
:1030E00002020202020202020202020202020203BF
:1030F00003030303030303030303030303030303A0
:10310000030202020202020202020202020202029E
:103110000202020202020202010202020202000094
:103120000000000000000000000003030000000099
:10313000000000000000000000000000000000008F
:10314000000000000000000000000000000000007F
:103150000000000000030303020202020202020256
:10316000020202020202020202020202020202023F
:10317000020202020202020202020202020303032C
:103180000303030303030303030303030303020211
:10319000020202020202020202020202020202020F
:1031A000020202020201020202020200000000000A
:1031B000000000000000000003000000000000000C
:1031C00000000000000000000000000000000000FF
:1031D00000000000000000000000000000000000EF
:1031E00000000303030303030303030303030303B5
:1031F000030303030303030303030303030303039F
:10320000030303030303030303030303030303038E
:10321000030303030303030303030303030303037E
:10322000030303030303030303030303030303036E
:10341000030303030303030303000000000101008F
:10342000000000000000000000000000000000009C
:103430000000000000000000000000000303030380
:10344000030303030303030303030303030303034C
:10345000030303030303030303030303030303033C
:103460000303030300000000000000000303030344
:103470000303000000000000030303030300000037
:103480000003030303030000000303030303030318
:103490000300000000000303030303030303000011
:1034A00000000303030303030303030303030303F2
:1034B00003030303030303030303030303030303DC
:1034C00003030303030303030303030303030303CC
:1034D00003030303030303030303030303030303BC
:1034E00003030303030303030303030303030303AC
:1034F000030303030303030303030303030303039C
:10350000030303030303030303030303030303038B
:10351000030303030303030303030303030303037B
:10352000030303030303030303030303030303036B
:10353000030303030303030303030303030303035B
:10354000030303030303030303030303030303034B
:10355000030303030303030303030303030303033B
:10356000030303030303030303030303030303032B
:10357000030303030303030303030303030303031B
:10358000030303030303030303030303030303030B
:1035900003030303030303030303030303030303FB
:1035A00003030303030303030303030303030303EB
:1035B00003030303030303030303030303030303DB
:1035C00003030303030303030303030303030303CB
:1035D00003030300000000030303030303030303C7
:1035E00003030303030303030303030303030303AB
:1035F000030303030303030303030303030303039B
:10360000030303030303030303030303030303038A
:10361000030303030303030303030303030303037A
:10362000030303030303030303030303030303036A
:10363000030303030303030303000000000000006F
:103640000000000000000000000303030303030365
:103650000303000303030300000000000000000058
:103660000000000101010103020202020202020243
:103670000202020202020202020203030303030324
:10368000030303030303030303030303030303030A
:1036900003030303030303030303030303020202FD
:1036A0000202020202020202020101010101010101
:1036B00003030303030303030303030303030303DA
:1036C00003000303030000000000000000000000EE
:1036D00000000000000000030303030300030300D5
:1036E00003030300000000000300000000010000CD
:1036F00001010102020202020202020202020202AD
:10370000020202020202030303030303030303038F
:103710000303030303030303030303030303030379
:10372000030303030303030303030202020202026F
:10373000020202020202010101010101020203036D
:10374000030303030303030303030303030300034C
:103750000303000000000000000000000000000063
:103760000000000003030303030003000000030341
:103770000000000000000000000100000101010144
:103780000202020202020202020202020202020219
:1037900002020203030303030303030303030303FC
:1037A00003030303030303030303030303030303E9
:1037B00003030303030303020202020202020202E2
:1037C00002020202010101010102020303030303D9
:1037D00003030303030303030303030303030300BC
:1037E00000000000000000000000000000000000D9
:1037F00000030303030303030300000303000000AB
:1038000000000000000001000001010101020202AD
:103810000202020202020202020202020202020288
:103820000303030303030303030303030303030368
:103830000303030303030303030303030303030358
:10384000030303030303030303020202020202024F
:103850000202010101010202030303030303030344
:103860000303030303030303030303030000000034
:103870000000000000000000000000000000030342
:103880000303030303030000030300000000000020
:103890000000000100010101010102020202020216
:1038A00002020202020202020202020203030303F4
:1038B00003030303030303030303030303030303D8
:1038C00003030303030303030303030303030303C8
:1038D00003030303030302020202020202020201C3
:1038E00001010102020303030303030303030303B0
:1038F00003030303030303030300000000000000AD
:1039000000000000000000000000000303030303A8
:103910000303030003030300000000000000000194
:103920000000010101010102020202020202020280
:103930000202020202020202020303030303030360
:103940000303030303030303030303030303030347
:103950000303030303030303030303030303030337
:103960000303030202020202020202020101010138
:103970000202030303030303030303030303030319
:103980000303030303030003000000000000000022
:103990000000000000000000030303030203030013
:1039A000000003030000000000000000010000010F
:1039B00001010101020202020202020202020202EB
:1039C00002020202020303030303030303030303CC
:1039D00003030303030303030303030303030303B7
:1039E00003030303030303030303030303030302A8
:1039F00002020202020202020202010101000303AA
:103A00000303030303030303030303030303030386
:103A1000030303000300000000000000000000009A
:103A20000000000000030303030203030000000082
:103A3000030000000000000000010001010101017D
:103A40000202020202020202020202020202020256
:103A50000202030303030303030303030303030338
:103A60000303030303030303030303030303030326
:103A7000030303030303030303030303020202021A
:103A80000202020202020201010101000303030318
:103A900003030303030303030303030303030303F6
:103AA0000003000000000000000000000000000013
:103AB00000000303030302030300000300030000EC
:103AC00000000000000000000101010101020202EB
:103AD00002020202020202020202020202020203C5
:103AE00003030303030303030303030303030303A6
:103AF0000303030303030303030303030303030396
:103B0000030303030303030303000202020202028E
:103B10000202020201010101020303030303030382
:103B2000030303030303030303030303030003006B
:103B30000000000000000000000000000000000382
:103B4000030303030303030003000000000000005D
:103B50000000000001010101010102020202020253
:103B60000202020202020202020202020303030331
:103B70000303030303030303030303030303030315
:103B80000303030303030303030303030303030305
:103B900003030303030303020202020202020202FE
:103BA00002010101010203030303030303030303EF
:103BB00003030303030303030303000300000000E4
:103BC00000000000000000000000000003030303E9
:103BD00003030303000000000000000000000000D9
:103BE00000010101010102020202020202020202BC
:103BF000020202020202020202030303030303039E
:103C00000303030303030303030303030303030384
:103C10000303030303030303030303030303030374
:103C20000303030302020202020202020202010172
:103C30000101020303030303030303030303030359
:103C4000030303030303030000000000000000005F
:103C50000000000000000000000303030003030352
:103C6000000000000003000000000000000101014E
:103C70000101010202020202020202020202020227
:103C8000020202020202030303030303030303030A
:103C900003030303030303030303030303030303F4
:103CA00003030303030303030303030303030303E4
:103CB00003030202020202020202020101010102E6
:103CC00003030303030303030303030303030303C4
:103CD00003030303000300000300000000000000D2
:103CE00000000000000003030302030300000000C3
:103CF00003000300000000000000010101010101B8
:103D00000202020202020202020202020202020293
:103D10000202020203030303030303030303030377
:103D20000303030303030303030303030303030363
:103D30000303030303030303030303030303030254
:103D40000202020202020202020101010203030353
:103D50000303030303030303030303030303030333
:103D6000030003000003000000000000000000004A
:103D70000000000303030203030000000000000032
:103D80000000000000000101010101010202020225
:103D90000202020202020202020202020202020203
:103DA00002030303030303030303030303030303E4
:103DB00003030303030303030303030303030303D3
:103DC00003030303030303030303030302020202C7
:103DD00002020202020201010100030303030303C2
:103DE00003030303030303030303030303030003A6
:103DF00000000000000000000000000000000000C3
:103E0000030303020303000000000300000000009E
:103E1000000000010101010101020202020202028E
:103E2000020202020202020202020202030303036E
:103E30000303030303030303030303030303030352
:103E40000303030303030303030303030303030342
:103E50000303030303030303030302020202020238
:103E6000020202020101010303030303030303032C
:103E7000030303030303030303030300030000001E
:103E80000000000000000000000000000003030329
:103E90000203030202000003000300000000000010
:103EA00001010101010102020202020202020202F8
:103EB00002020202020202020203030303030303DB
:103EC00003030303030303030303030303030303C2
:103ED00003030303030303030303030303030303B2
:103EE00003030303030303020202020202020202AB
:103EF0000201010103030303030303030303030399
:103F00000303030303030303000300000300000093
:103F10000000000000000000000003030302030093
:103F20000200000000000300000000000001010189
:103F30000101010202020202020202020202020264
:103F40000202020202020303030303030303030347
:103F50000303030303030303030303030303030331
:103F60000303030303030303030303030303030321
:103F7000030303030202020202020202020201011F
:103F80000103030303030303030303030303030303
:103F9000030303030300030000030000000000000C
:103FA00000000000000000030303020302020000FF
:103FB00000000000020000000000010101010101F9
:103FC00002020202020202020202020202020202D1
:103FD00002020203030303030303030303030303B4
:103FE00003030303030303030303030303030303A1
:103FF0000303030303030303030303030303030391
:104000000302020202020202020202010101030390
:104010000303030303030303030303030303030370
:104020000303000300000300000000000000000084
:10403000000000000303030203000200000003006D
:104040000002000000000001010101010202020261
:104050000202020202020202020202020202020240
:104060000303030303030303030303030303030320
:104070000303030303030303030303030303030310
:104080000303030303030303030303030303020202
:104090000202020202020202020101000303030300
:1040A00003030303030303030303030303030300E3
:1040B00003000003000000000000000000000000FA
:1040C00000030303020003020000000300000200DB
:1040D00000000000010101010102020202020202CD
:1040E00002020202020202020202020202030303AD
:1040F0000303030303030303030303030303030390
:10410000030303030303030303030303030303037F
:104110000303030303030303030303020202020274
:10412000020202020202010102030303030303036A
:10413000030303030303030303030303000000005B
:104140000300000000000000000000000000030366
:10415000030203020200000003000002000000004E
:104160000001010101010202020202020202020236
:104170000202020202020202020203030303030319
:1041800003030303030303030303030303030303FF
:1041900003030303030303030303030303030303EF
:1041A00003030303030303030202020202020202E7
:1041B00002020101010203030303030300030303DB
:1041C00003030303030003030303000000030000D1
:1041D00000000000000000000000000303030003D3
:1041E00002020000000300000200000000000101C4
:1041F00001010102020202020202020202020202A2
:104200000202020202020203030303030303030385
:10421000030303030303030303030303030303036E
:10422000030303030303030303030303030303035E
:104230000303030303020202020202020202020259
:104240000101020303030303030303030303030343
:10425000030300030003030000000300000000004C
:10426000000000000000000003030300030202003E
:104270000000000000020000000000010101010137
:10428000020202020202020202020202020202020E
:1042900002020203030303030303030303030303F1
:1042A00003030303030303030303030303030303DE
:1042B00003030303030303030303030303030303CE
:1042C00003030202020202020202020202010102CE
:1042D00000030303030303030303030303030300B4
:1042E00003030303030000000000000000000000BF
:1042F00000000000000303030003020202000202A8
:10430000020202000000000102010101000202029B
:10431000020202020202020202020202020202027D
:10432000030303030303030303030303030303035D
:10433000030303030303030303030303030303034D
:10434000030303030303030303030303030303023E
:10435000020202020202020202020101010203033E
:104360000003030303030303030303030003030323
:104370000303000000000000000000000000000037
:104380000000030303000302020000020202020213
:104390000000000001020101010202020202020209
:1043A00002020202020202020202020202030303EA
:1043B00003030303030303030303030303030303CD
:1043C00003030303030303030303030303030303BD
:1043D00003030303030303030303030302020202B1
:1043E00002020202020202010101020303000303AE
:1043F0000303030303030303030303030303030090
:1044000000000000000000000000000000000003A9
:104410000303000002000002020202020200000187
:104420000001020101010202020202020202020272
:104430000202020202020202020303030303030355
:10444000030303030303030303030303030303033C
:10445000030303030303030303030303030303032C
:104460000303030303030303030302020202020222
:104470000202020201010102030303030303030317
:10448000030303000303030303030303000000000B
:104490000000000000000000000000000303030013
:1044A00000020000020202020202000000000002FC
:1044B00001010101020202020202020202020202E0
:1044C00002020202020203030303030303030303C2
:1044D00003030303030303030303030303030303AC
:1044E000030303030303030303030303030303039C
:1044F0000303030303030302020202020202020295
:104500000201010102020303030303030303030384
:104510000003030300030303030000000000000086
:10452000000000000000000000030303030002007D
:104530000000020202020202000200020101010167
:10454000020202020202020202020202020202024B
:10455000020202030303030303030303030303032E
:10456000030303030303030303030303030303031B
:10457000030303030303030303030303030303030B
:104580000303030302020202020202020202020108
:1045900001020202000303030303030303030303F3
:1045A00003000303030000000000000000000000FF
:1045B00000000000000003030303020202020202E3
:1045C00002020202020001000101020202020202D2
:1045D00002020202020202020202020202030303B8
:1045E000030303030303030303030303030303039B
:1045F000030303030303030303030303030303038B
:10460000030303030303030303030303030303037A
:10461000030202020202020202020202010102027B
:104620000200030303030303030303030303000361
:104630000303000000000000000000000000000074
:10464000000000030303000202020202020202024F
:104650000202000100010202020202020202020240
:104660000202020202020202020203030303030324
:10467000030303030303030303030303030303030A
:1046800003030303030303030303030303030303FA
:1046900003030303030303030303030303030202EC
:1046A00002020202020202020202010202020003EC
:1046B00003030303030303030303030000030303D0
:1046C00000000000000000000000000000000000EA
:1046D00003030300020202020202020202020202B9
:1046E00000010102020202020202020202020202AE
:1046F0000202020202020203030303030303030391
:104700000303030303030303030303030303030379
:104710000303030303030303030303030303030369
:10472000030303030303030303030302020202025E
:104730000202020202020201010202020303030357
:104740000303030303030303000003030300000048
:104750000000000000000000000000000003030350
:104760000002020202020202020202020000010131
:104770000202020202020202020202020202020219
:1047800002020202030303030303030303030303FD
:1047900003030303030303030303030303030303E9
:1047A00003030303030303030303030303030303D9
:1047B00003030303030303030202020202020202D1
:1047C00002020202020102020203030303030303C3
:1047D00003030303030300030303030000000000BB
:1047E00000000000000000000000030303000202BC
:1047F000020202020202020202020000010102029F
:104800000202020202020102020202020202020289
:10481000020203030303030303030303030303036A
:104820000303030303030303030303030303030358
:104830000303030303030303030303030303030348
:104840000303030303020202020202020202020243
:10485000020202020202030303030303030303032E
:104860000303030003030300000000000000000036
:104870000000000000000003030302020202020322
:104880000202020202020200000101010202010210
:104890000201010101010101010101020202020202
:1048A00003030303030303030303030303030303D8
:1048B00003030303030303030303030303030303C8
:1048C00003030303030303030303030303030303B8
:1048D00003030303020202020202020202020202B4
:1048E000020202020303030303030303030303039C
:1048F00000030303000000000000000000000000AF
:10490000000000000303030202000203030202028C
:104910000202020202000101020202010101010180
:10492000010101010101010101010202020303036E
:104930000303030303030303030303030303030347
:104940000303030303030303030303030303030337
:104950000303030303030303030303030303030327
:104960000202020202020202020202020102020228
:10497000020303030303030303030303030003030B
:104980000300000000000000000000000000000024
:1049900000030303020201020303020202020202F5
:1049A00002020001010202010101000000000000FA
:1049B00000000101010101010102020202030303DF
:1049C00003030303030303030303030303030303B7
:1049D00003030303030303030303030303030303A7
:1049E000030303030303030303030303030202029A
:1049F0000202020202020201010102020202030398
:104A0000030303030303030303030303030300007C
:104A10000000000000000000000000000000030390
:104A20000302020202020202020202020202000069
:104A30000101010100000000000000000000000072
:104A4000000000010101010101010202030303034F
:104A50000303030303030303030303030303030326
:104A60000303030303030303030303030303030316
:104A7000030303030303030303030202020201010E
:104A8000010100000000000003020203030303030E
:104A900003030303030303030303030000000000F5
:104AA00000000000000000000000000303030202F9
:104AB00002020202020202020202020200020000DC
:104AC00000000000000000000000000000000000E6
:104AD00000000000000101010101030303030303BF
:104AE0000303030303030303030303030303030396
:104AF0000303030303030303030303030303030386
:104B0000030303030202020201020101000000008C
:104B10000000000000030302030303030303030375
:104B2000030303030303030303000000000000006A
:104B30000000000000000000030303020202020262
:104B40000202020202020202020000000000000053
:104B5000000101010101010101000000000000004D
:104B6000000000000001010101020203030303032E
:104B70000303030303030303030303030303030305
:104B800003030303030303030303030303030303F5
:104B9000020201010103000000000000000000000B
:104BA00000000303020203030303030303030303DD
:104BB00003030303030300000000000000000000E3
:104BC00000000000000303030302020202020202CB
:104BD00002020202020200000000000101010101C4
:104BE00001010101010101010101010000000000BA
:104BF000000000000101010101000303030303039E
:104C00000303030303030303030303030303030374
:104C1000030303030303030303030202030201016B
:104C20000101000000000000000000000000000082
:104C30000302020203030303030303030303030347
:104C4000030303000000000000000000000000005B
:104C50000000030303030202020202020302020233
:104C60000202000000000001010101010101020235
:104C70000202020202020101010101010100000021
:104C8000000000010101010102020203030303030A
:104C900003030303030303030303030303030303E4
:104CA00003030303030202020202010101010000E7
:104CB00000000000000000010101010100020202E9
:104CC00003030003030303030303030303030303B7
:104CD00003000000000000000000000000000003CE
:104CE00003030302020202020202030202020200A2
:104CF000000000010101020202020202020202029D
:104D0000020202020201010101010101010101018E
:104D10000101010101010202020203030303030373
:104D20000303030303030303030303030303030353
:104D30000202020202020101010100000000000063
:104D40000001010101010101010102020202000250
:104D50000303030303030303000300000300000035
:104D60000000000000000000000000000303030337
:104D7000020202020202020202020202000000001B
:104D80000101020202020202020202020202020205
:104D90000202020101010101010101010101010100
:104DA00001010102020202020203030303030303DF
:104DB00003030303030303030303030302020202C7
:104DC00002020101010101010101010101010101D1
:104DD00001010101010101010202020302020303B8
:104DE00003030303030303000000000000000000AE
:104DF00000000000000000000003030303000202A3
:104E00000202020202020202020200020001010288
:104E10000202020202020202020202020202020173
:104E20000101010101010101010101010101010172
:104E3000010102020202020202030303030303034D
:104E4000030303030303020202020202020201013E
:104E50000101010101010101010101010101010142
:104E60000101010101020202000202020303030325
:104E70000303000303000003000000000000000023
:104E80000000000000000303030303020202020209
:104E900002020202020202020102010101010101F9
:104EA00001010101010202010101010101010101F0
:104EB00001010101010101010101010101010102E1
:104EC00002020202020203030303030303030303B8
:104ED00003020202020202020202010101010101B7
:104EE00001010101010101010101010101010101B2
:104EF000010101020202020202030303030303038E
:104F000000000000000000000000000000000000A1
:104F10000000000303030300020202030202020274
:104F2000020202020202010101010101010101016B
:104F30000101010101010101010101010101010161
:104F4000010101010101010101010101020202024D
:104F50000202020202030303030303030303030326
:104F6000020202020202020101010101010101012A
:104F70000101010101010101010101010101010121
:104F800002020202020303030303030303000000FF
:104F90000000000000000000000000000000000011
:104FA00003030303000202020302020202020202DE
:104FB00002020201010101010101010101010101DE
:104FC00001010101010101010101010101010101D1
:104FD00001010101010101010101020202020202BB
:104FE0000202030303030303030303020202020298
:104FF000020202010101010101010101010101019E
:10500000010101010101010101010101010202028D
:105010000202020303030303030303000000000072
:105020000000000000000000000000000003030377
:10503000030302020203030202030202020202024B
:105040000101010101010101010101010101010150
:105050000101010101010101010101010101010140
:105060000101010101010101020202020202030326
:10507000030303030302020202020202020202020B
:105080000101010101010101010101010101010110
:1050900001010101010101010101010102020202FC
:1050A00002030303030303030000000000000000E9
:1050B00000000000000000000000030303030303DE
:1050C00002020202020303020203020202010101C0
:1050D00001010101010101010101010101010101C0
:1050E00001010101010101010101010101010101B0
:1050F0000101010101020202020202030303030390
:105100000303020202020202020202020101010181
:10511000010101010101010101010101010101017F
:105120000101010101010101010202020202030366
:105130000303030303000000000000000000000060
:10514000000000000000000303030000030202024D
:105150000203030302020302020201010101010131
:10516000010101010101000000000003030303032A
:10517000030300000101010101010101010101011D
:1051800001010202020202020303030303030302FA
:1051900002020202020202020101010101010101F7
:1051A00001010101010100000000000000000001F8
:1051B00001010101010202020202020303030303CF
:1051C00003030300000000000000000000000000D6
:1051D00000000000030303000000030203030203B6
:1051E00003020203030203000101010101010101A5
:1051F000010000010101030303030303030303038D
:10520000030300010101010101010101010101018B
:105210000202020202030303030303030302020266
:10522000020202020101010101010101010101016A
:10523000010000000000000000000000000000006D
:105240000101020202020202020303030303030339
:10525000030000000000000000000000000000004B
:10526000000303030000000302030303020302021E
:105270000303020302010101010101010101010116
:105280000100000003000000000000000000030017
:1052900000010101010101010101010101020202FC
:1052A00002020303030303030303020202020202D6
:1052B00001010101010101010101010100000003DF
:1052C00003030303030303000300000000000102C3
:1052D00002020202020203030303030303030300A7
:1052E00000000000000000000000000000000303B8
:1052F000030000000302030303030303020303028A
:10530000030201010101010101010101010000008D
:105310000000000000000000000000000102000189
:105320000101010101010101010101020202020367
:105330000303030303030302020202020201010149
:10534000010101010101010100000003030000004F
:105350000000000000000000010100000002020245
:10536000020202020303030303030303000000001D
:105370000000000000000000000000030303000024
:1053800000030203030303030303030302030002F6
:1053900001010101010101010100000000030300FE
:1053A00000000000000000000000010101010101F7
:1053B00001010101010101010202020203030303D1
:1053C00003030303030202020202010101010101BE
:1053D00001010101000003000000000000000000C6
:1053E00000000000000100000100020202020202AF
:1053F0000202030303030303030000000000000094
:105400000000000000000000030303000000000390
:105410000203030303030303030202020201010167
:10542000010101010000000000030303000000006F
:10543000030300000000000301010101010101015B
:10544000010101010102020202030303030303033A
:105450000303030202020201010101010101010132
:105460000000030000000000000000000000000039
:10547000000000000000000002010202020202021D
:105480000303030303030300000000000000000007
:1054900000000000000303030000000003030303F7
:1054A00003030303030302020200010101010100DF
:1054B00000000000000303030000000000000000E3
:1054C00000030000030301010301010101010101C7
:1054D00001010202020203030303030303030303A4
:1054E00002020201010101010101010100000300AA
:1054F00003030000000003000000000000000000A3
:105500000000000001000202020202020202030384
:10551000030303030000000000000000000000007F
:105520000000030303000000000003030203030361
:105530000302030202020201010101010000000056
:105540000003030303000003030000000000030046
:105550000003030301010301010101010101010233
:105560000202020303030303030303030302020112
:105570000101010101010101010000000303030019
:105580000000000000000000000003000000000018
:1055900000000002020202020202020203030303ED
:1055A00003030000000000000000000000000003F2
:1055B00003030000000000030302020303020203CE
:1055C00002020202010101010101010101010303C3
:1055D00003030300030300000000030303030303AA
:1055E000030301030301010101010101020202029F
:1055F0000303030303030303030302020101010185
:105600000101010101000000030303030000000089
:105610000000000000000003030000000000000084
:105620000102020202020202020203030303030058
:105630000000000000000000000000000303030061
:10564000000000000303030203020202020202013F
:10565000020201010101010101010103030303032E
:10566000000303030303030303030303030303030D
:10567000010101010101010101020202030303030F
:1056800003030303030302020201010101010101FB
:1056900001010100030303030300030300000000F2
:1056A00003030000030303000000000000000002E9
:1056B00002020202020303020203030303030000C7
:1056C00000000000000000000003030300000000D1
:1056D00000000303020302020202020201010201AE
:1056E000010101010101010101030303030303039C
:1056F0000303030303030303030303030301010180
:105700000101010101010202020303030303030378
:105710000303030202020101010101010101010170
:105720000103030303030003030303030303030051
:105730000303030300000000000000000102020256
:105740000202020202020202020000000000000047
:10575000000000000000030303000000000000033D
:10576000030202020202020202020101010101011E
:105770000101010101010103030303030303030307
:1057800003030303030303030301010301010101F5
:1057900001010102020202030303030303030303E3
:1057A00002020201010101010101010101010103E4
:1057B00003030303030303030303030300030303BC
:1057C00003030000000000000001020202020202C6
:1057D00002030303020203000000000000000000B7
:1057E00000000003030300000000000000030202A9
:1057F0000202020202020101010101010101010193
:105800000101010101030303030303030303030372
:105810000303010101010101010101020101020271
:10582000020202030303030303030303030302024D
:105830000101010101010101010101010303030350
:10584000030303030303030300030303030303012D
:105850000101000000000101010202020202020235
:105860000302020303030000000000000000000028
:105870000303030000000000000003000202020214
:105880000202020201010101010101010101010104
:1058900001010101010101030303030303010101EC
:1058A00001010101010102020202020202020202DE
:1058B00003030303030303030303030202010101C0
:1058C00001010101010101010101010103030303C0
:1058D00003030303030303030303030101010000A4
:1058E00000000000000102020202020203020202A2
:1058F0000202030000000000000000000003030398
:105900000000000000000003030102020202020284
:105910000101010101010101010101010101010177
:105920000101010101030303030301010103030357
:10593000030303030302020202020202020303033F
:105940000303030303030303020101010101010136
:105950000101010101030101010303030303030327
:105960000303030303010101010101010100000020
:10597000000000010202020202020202020202020E
:10598000000000000000000000000303030000000E
:1059900000000000020301020202020202010101F2
:1059A00001010101010101010101010101010101E7
:1059B00001010101010101010100030303030303CC
:1059C00003030202020202020202030303030303AF
:1059D00003030303030202010101010101020202A8
:1059E0000202030003030303030303030101010194
:1059F000010101010101010101010101010000009A
:105A0000010202020202020202020202020300007A
:105A1000000000000000000303030000000000007D
:105A20000000030002020202020201010101010161
:105A30000201010101010101010101010101010155
:105A40000101010101030303030303030303030330
:105A5000020202020202020303030303030303031D
:105A60000303020201010102020202020203030314
:105A70000300000101010101010101010101010116
:105A80000101010101010101010101010000010108
:105A900002020202020202020202020003000000ED
:105AA00000000000030303000000000000000003EA
:105AB00003020203020202020101010201020101CA
:105AC00001010101010101010101010101010303C2
:105AD000030303030303030303030303020202029A
:105AE000020202020303030303030303030303038A
:105AF0000202020202020202020203030303030380
:105B00000301010101010101010101010101010183
:105B10000101010101010101010000020101020274
:105B2000020202020202020202020002000000005F
:105B30000003030300000000000000000003020255
:105B4000020002020200010102010202020101013F
:105B50000102020101010201020203030303030324
:105B6000030303030303030303020202020202020C
:105B700002030303030303030303030303020202F9
:105B800002020202020202020303030303030301EF
:105B900001010101010101010101010101010101F5
:105BA00001010101010100000000010101020202E6
:105BB00002020202020202000200000000000303CF
:105BC00003000000000000000000020001020202C9
:105BD00002020201010202020202010101020202AA
:105BE000020202020202020303030303030303038C
:105BF000030303030303020202020202020203037D
:105C0000030303030303030303030202020202026A
:105C1000020202020203030303030303030101015F
:105C20000101010101010101010101010101010164
:105C30000101010101000002010101020202020250
:105C4000020202020202000000000003030300003F
:105C50000000000000000002020102020202020233
:105C60000101010202020202020202020202020217
:105C700002020303030303030303030303030303F6
:105C800003030302020202020202020303030303EC
:105C900003030303030303020202020202020202DD
:105CA00002020203030303030303030302010101CE
:105CB00001010101010102020101010101010101D2
